:1000000033C0000044C0000042C0000040C00000F7
:100010003EC000003CC000003AC0000038C00000F4
:1000200036C0000034C0000032C0000030C0000004
:100030002EC000002CC000002AC0000028C0000014
:1000400026C0000024C0000022C0000020C0000024
:100050001EC000001CC000001AC0000018C0000034
:1000600016C0000014C0000011241FBECFEFD8E05E
:10007000DEBFCDBF11E0A0E0B1E0E2EFF0E002C0F2
:1000800005900D92AE30B107D9F714D030C0B8CF7B
:100090009091C00095FFFCCF8093C6000895CF9348
:1000A000DF93EC018991882311F0F2DFFBCFDF9120
:1000B000CF91089582E084B91092C50081E88093C1
:1000C000C40086E08093C20088E08093C10080E095
:1000D00091E0E5DF85B1809585B92FE784E89EE161
:1000E000215080409040E1F700C00000F0CFF8942C
:0200F000FFCF40
:0E00F20048656C6C6F20576F726C64210A00B9
:00000001FF
