:1000000033C0000044C0000042C0000040C00000F7
:100010003EC000003CC000003AC0000038C00000F4
:1000200036C0000034C0000032C0000031C0000003
:100030002EC000002CC000002AC0000028C0000014
:1000400026C0000024C0000022C0000020C0000024
:100050001EC000001CC000001AC0000018C0000034
:1000600016C0000014C0000011241FBECFEFD8E05E
:10007000DEBFCDBF11E0A0E0B1E0E2EDF8E002C0EC
:1000800005900D92AC34B107D9F742D020C4B8CF57
:100090001F920F920FB60F9211248F939F9380910E
:1000A000000190910101909389008091000190914D
:1000B0000101809388009F918F910F900FBE0F9048
:1000C0001F9018959091C00095FFFCCF8093C600BB
:1000D0000895CF93DF93EC018991882311F0F2DF2B
:1000E000FBCFDF91CF9108958091C00087FFFCCFB7
:1000F0008091C6000895CF93DF93EC01F5DF8D303A
:1001000019F08993DFDFFACF1882DF91CF9108953C
:10011000A1E1B1E0EDE8F0E0A0C082E084B990E4B4
:10012000909380009DE09093810093E090938900EC
:1001300090ED9093880080936F001092C50081E845
:100140008093C40086E08093C20088E18093C10060
:100150007894E12CF12C82E0682E81E0782E8E01DB
:100160000F571F4F94E2A92E91E0B92E25E2822E5F
:1001700026E2922E6E0181E0C80ED81E3DE3432E8A
:1001800031E0532E9FEFE91AF90AFF92EF927F9226
:100190006F921F930F93E1D0C8019BDFCE010196B0
:1001A000AADF8AE391E095DFCE01019684D0BC01FD
:1001B0007F938F93BF92AF921F930F93C05FDE4FD9
:1001C0008883C051D140CF5EDE4F7883C151D1408A
:1001D000C4D0C8017EDFC401C05FDE4F6881C0515A
:1001E000D140CF5EDE4F7881C151D14021D0709394
:1001F00001016093000180910001909101014AE0AA
:1002000050E0B60175D0DF92CF925F924F921F936C
:100210000F93A3D0C8015DDF8FE493EC0197F1F752
:1002200000C000000FB6F894DEBF0FBECDBFAACF4E
:1002300097FB072E16F4009406D077FD08D027D040
:1002400007FC05D03EF4909581959F4F08957095D9
:1002500061957F4F08952F923F924F925F926F92D8
:100260007F928F929F92AF92BF92CF92DF92EF9246
:10027000FF920F931F93CF93DF93CDB7DEB7CA1BC7
:10028000DB0B0FB6F894DEBF0FBECDBF0994AA1BDF
:10029000BB1B51E107C0AA1FBB1FA617B70710F071
:1002A000A61BB70B881F991F5A95A9F780959095A3
:1002B000BC01CD010895FC0188279927E89421917C
:1002C0002032E9F3293010F02E30C8F32B3239F008
:1002D0002D3231F4689403C01FD0820F911D2191FB
:1002E00020532A30C8F31EF4909581959F4F0895AE
:1002F0004532510518F4423008F004C0FB01108269
:10030000CB010895BB274A3031F4992322F4BDE292
:10031000909581959F4F09C07AE0979F902D879F78
:10032000802D910D11240895BB27FB015527AA2785
:10033000880F991FAA1FA41710F0A41B8395505172
:10034000B9F7A05DAA3308F0A95DA193009779F7EA
:10035000B111B1931192CB01F9C1AEE0B0E0E2EB83
:10036000F1E087CF0D891E8986E08C831A8309838B
:100370008FEF9FE79E838D83AE01475E5F4F6F894E
:10038000788DCE01019609D02F813885F801E20FD2
:10039000F31F10822E96E4E08DC2ACE0B0E0E2EDF7
:1003A000F1E059CF7C016B018A01FC0117821682B2
:1003B000838181FFB0C1CE0101964C01F701938189
:1003C000F60193FD859193FF81916F01882309F4D4
:1003D0009EC1853239F493FD859193FF81916F0120
:1003E000853221F4B70190E0C1D1E8CF512C312CF6
:1003F00020E02032A0F48B3269F030F4803259F0E2
:10040000833269F420612CC08D3239F0803339F4A5
:10041000216026C02260246023C0286021C027FDFF
:1004200027C030ED380F3A3078F426FF06C0FAE0E6
:100430005F9E300D1124532E13C08AE0389E300D7C
:100440001124332E20620CC08E3221F426FD5FC1B0
:10045000206406C08C3611F4206802C0883641F44E
:10046000F60193FD859193FF81916F018111C1CFB9
:10047000982F9F7D9554933028F40C5F1F4FFFE316
:10048000F9830DC0833631F0833771F0833509F07D
:1004900057C021C0F801808189830E5F1F4F44241B
:1004A0004394512C540114C03801F2E06F0E711CBA
:1004B000F801A080B18026FF03C0652D70E002C066
:1004C0006FEF7FEFC5012C8736D12C0183012C857E
:1004D0002F77222E16C03801F2E06F0E711CF80142
:1004E000A080B18026FF03C0652D70E002C06FEFD1
:1004F0007FEFC5012C8714D12C012C852068222E7A
:10050000830123FC19C0832D90E048165906A0F4FE
:10051000B70180E290E02AD13A94F5CFF50127FCAB
:10052000859127FE81915F01B70190E01FD13110C5
:100530003A94F1E04F1A51084114510479F7DEC0A2
:10054000843611F0893631F5F80127FF07C0608144
:100550007181828193810C5F1F4F08C0608171811E
:10056000072E000C880B990B0E5F1F4F2F76722EF3
:1005700097FF09C090958095709561957F4F8F4F3B
:100580009F4F2068722E2AE030E0A40127D1A82EC8
:10059000A81843C0853729F42F7EB22E2AE030E018
:1005A00025C0F22FF97FBF2E8F36C1F018F48835A1
:1005B00079F0ADC0803719F0883721F0A8C02F2F0F
:1005C0002061B22EB4FE0DC08B2D8460B82E09C000
:1005D00024FF0AC09F2F9660B92E06C028E030E0A5
:1005E00005C020E130E002C020E132E0F801B7FEB2
:1005F00007C060817181828193810C5F1F4F06C0AB
:100600006081718180E090E00E5F1F4FA401E6D011
:10061000A82EA818FB2DFF777F2E76FE0BC0372D56
:100620003E7FA51450F474FE0AC072FC08C0372D3A
:100630003E7E05C0BA2C372D03C0BA2C01C0B52CA4
:1006400034FF0DC0FE01EA0DF11D8081803311F4ED
:10065000397E09C032FF06C0B394B39404C0832F1F
:10066000867809F0B39433FD12C030FF06C05A2CCF
:10067000B31418F4530C5B18B32CB31460F4B70123
:1006800080E290E03C8772D0B3943C85F6CFB314FF
:1006900010F43B1801C0312C34FF11C0B70180E3C6
:1006A00090E03C8763D03C8532FF16C031FD03C02B
:1006B00088E790E002C088E590E0B7010CC0832F86
:1006C000867851F031FF02C08BE201C080E237FD35
:1006D0008DE2B70190E04AD0A51430F4B70180E371
:1006E00090E044D05A94F8CFAA94F401EA0DF11D99
:1006F0008081B70190E03AD0A110F6CF332009F401
:100700005DCEB70180E290E031D03A94F7CFF701A7
:100710008681978102C08FEF9FEF2C96E2E1BCC0EB
:10072000FC010590615070400110D8F780959095BC
:100730008E0F9F1F0895FC016150704001900110C1
:10074000D8F7809590958E0F9F1F0895DC01FC01CE
:10075000672F71917723E1F7329704C07C916D93F5
:1007600070836291AE17BF07C8F308950F931F936C
:10077000CF93DF93FB01238121FD03C08FEF9FEF18
:1007800028C022FF16C04681578124813581421737
:10079000530744F4A081B1819D012F5F3F4F318306
:1007A00020838C93268137812F5F3F4F37832683A9
:1007B00010C0EB01092F182F0084F185E02D099559
:1007C000892BE1F68E819F8101969F838E83812FF5
:1007D000902FDF91CF911F910F910895FA01AA27D1
:1007E000283051F1203181F1E8946F936E7F6E5F74
:1007F0007F4F8F4F9F4FAF4FB1E03ED0B4E03CD022
:10080000670F781F891F9A1FA11D680F791F8A1F04
:10081000911DA11D6A0F711D811D911DA11D20D06B
:1008200009F468943F912AE0269F11243019305D25
:100830003193DEF6CF010895462F4770405D419316
:10084000B3E00FD0C9F7F6CF462F4F70405D4A3363
:1008500018F0495D31FD4052419302D0A9F7EACF2B
:10086000B4E0A6959795879577956795BA95C9F75A
:1008700000976105710508959B01AC010A2E06944D
:100880005795479537952795BA95C9F7620F731F06
:10089000841F951FA01D08952A88398848885F8481
:1008A0006E847D848C849B84AA84B984C884DF8010
:1008B000EE80FD800C811B81AA81B981CE0FD11DF4
:1008C0000FB6F894DEBF0FBECDBFED010895F894CA
:0208D000FFCF58
:1008D2004B4C5B25645D20506C6561736520656ED1
:1008E20074657220746865206672657175656E63E1
:1008F200793A2000696E746572707265746564205D
:10090200667265713A205B25645D0D0A007261743E
:0C091200653A205B25645D200D0A0A0098
:00000001FF
