:10000000B0C00000C2C00000C0C00000BEC0000000
:10001000BCC00000BAC00000B8C00000B6C00000FC
:10002000B4C00000B2C00000B0C00000AEC000000C
:10003000ACC00000AAC00000A8C00000A6C000001C
:10004000A4C00000A2C00000A0C000009EC000002C
:100050009CC000009AC0000098C0000096C000003C
:1000600094C0000092C0000000407A10F35A00A033
:10007000724E18090010A5D4E80000E87648170071
:1000800000E40B54020000CA9A3B000000E1F505B1
:10009000000080969800000040420F000000A086FB
:1000A00001000000102700000000E803000000002D
:1000B0006400000000000A000000000001000000D1
:1000C00000002C76D888DC674F0823DFC1DFAE59EB
:1000D000E1B1B796E5E3E453C63AE651997696E87E
:1000E000E6C28426EB898C9B62ED407C6FFCEFBC02
:1000F0009C9F40F2BAA56FA5F490055A2AF75C932D
:100100006B6CF9676DC11BFCE0E40D47FEF520E662
:10011000B500D0ED902E0300943577050080841E45
:10012000080000204E0A000000C80C333333330FA0
:10013000986E12831141EF8D2114893BE65516CF3D
:10014000FEE6DB18D1844B381BF77C1D901DA4BB49
:10015000E424203284725E228100C9F124ECA1E5FE
:100160003D2711241FBECFEFD8E0DEBFCDBF12E088
:10017000A0E0B1E0E8E9F2E102C005900D92AE30F6
:10018000B107D9F722D10C944A093ACF1092C50091
:100190008AE08093C40086E08093C200E1ECF0E046
:1001A00080818861808308959091C00095FFFCCF85
:1001B0008093C6000895CF93DF93EC018991882343
:1001C00011F0F2DFFBCFDF91CF9108958091C00055
:1001D00087FFFCCF8091C600089580E388B98CE545
:1001E0008093B8008FEF8093BB0084E08093BC00C5
:1001F000089594EE9093BC009091BC0097FFFCCFC3
:100200009091B900987F9830B9F5880F8093BB0022
:1002100084E88093BC008091BC0087FFFCCF809174
:10022000B900887F883159F56093BB0084E88093DA
:10023000BC008091BC0087FFFCCF8091B900887F13
:10024000883201F54093BB0084E88093BC00809124
:10025000BC0087FFFCCF8091B900887F8832A9F469
:1002600084E98093BC0087E893E10197F1F700C02F
:10027000000080E090E008958FEF9FEF08958EEFEB
:100280009FEF08958DEF9FEF08958CEF9FEF0895F6
:1002900094EA9093BC009091BC0097FFFCCF9091A2
:1002A000B900987F983009F07BC0982F990F9093F0
:1002B000BB0094E89093BC009091BC0097FFFCCFEA
:1002C0009091B900987F983109F06DC0223008F004
:1002D00060686093BB0094E89093BC009091BC0070
:1002E00097FFFCCF9091B900987F983209F05EC0DB
:1002F00094EA9093BC009091BC0097FFFCCF909142
:10030000B900987F903109F054C0880F81608093C4
:10031000BB0084E88093BC008091BC0087FFFCCFC9
:100320008091B900887F803409F046C02230E0F027
:10033000BA01FA0130E021503109A4ECAF01CF013C
:10034000861B970B821793077CF4A093BC008091C7
:10035000BC0087FFFCCF8091B900887F803579F59C
:100360008091BB008193EACF84E88093BC008091A8
:10037000BC0087FFFCCF8091B900887F883511F5DC
:100380008091BB00FA01808384E98093BC0087E8F8
:1003900093E10197F1F700C0000080E090E008953C
:1003A0008FEF9FEF08958EEF9FEF08958DEF9FEFF2
:1003B00008958CEF9FEF08958BEF9FEF08958AEFDC
:1003C0009FEF089589EF9FEF0895A9E5B2E0EAEE67
:1003D000F1E025C1219ADADE80E091E0ECDE83E0F5
:1003E00091E0E9DEFADE82E291E0E5DE21E0AE01B5
:1003F0004B5A5D4F6FE08BE64BDFCB5ADD4F888168
:10040000C555D2401F928F938EE391E09F938F93B7
:10041000CE0101967C019F938F932DD2C701CBDE35
:1004200021E0AE014B5A5D4F6FE08EE131DFCB5AD8
:10043000DD4F8881C555D2401F928F938BE591E0A7
:100440009F938F93FF92EF9216D2C701B4DE21E003
:10045000AE014B5A5D4F6FE08DE51ADFCB5ADD4F91
:100460008881C555D2401F928F9381E891E09F9378
:100470008F93FF92EF92FFD1C7019DDE80E2CB5AAE
:10048000DD4F8883C555D24040E260E18BE6B1DEA6
:1004900084EA91E090DE87EC91E08DDE97DECB5A26
:1004A000DD4F8883C555D2400FB6F894DEBF0FBE2E
:1004B000CDBF4E0197E3891A9EEF990A6E0127EB93
:1004C000C21A2EEFD20A5E0189ECA80EB11C35EFDC
:1004D000232E31E0332E21E0AE014B5A5D4F67E110
:1004E0008BE6D6DECB5ADD4F8881C555D2408730AA
:1004F00009F087C026E0AE01475B5D4F68E28BE6FE
:10050000C7DEC45BDD4F6881CC54D24070E0762FEB
:100510006627C55BDD4F8881CB54D240682B072E00
:10052000000C880B990B99D021E43AED4FE758E382
:10053000CFD0CA5ADD4F688379838A839B83C6559F
:10054000D240C25BDD4F6881CE54D24070E0762F3E
:100550006627C35BDD4F8881CD54D240682B072EC0
:10056000000C880B990B79D021E43AED4FE758E362
:10057000AFD02B013C01C65BDD4F6881CA54D2402D
:1005800070E0762F6627C75BDD4F8881C954D24063
:10059000682B072E000C880B990B5FD021E43AEDF5
:1005A0004FE758E395D0840124E030E047E050E085
:1005B00043D1860124E030E047E050E0CA5ADD4FE5
:1005C000688179818A819B81C655D24035D1850168
:1005D00024E030E047E050E0C301B2012DD1BF92EA
:1005E000AF92DF92CF929F928F923F922F92FF9283
:1005F000EF9241D1C701DFDD0FB6F894DEBF0FBE29
:10060000CDBF85B192E0892785B92FEF84E39CE0C7
:10061000215080409040E1F700C000005CCF2F9255
:100620003F924F925F926F927F928F929F92AF9282
:10063000BF92CF92DF92EF92FF920F931F93CF93CF
:10064000DF93CDB7DEB7CA1BDB0B0FB6F894DEBF66
:100650000FBECDBF0994E89409C097FB3EF4909576
:100660008095709561957F4F8F4F9F4F9923A9F08B
:10067000F92F96E9BB279395F6958795779567951A
:10068000B795F111F8CFFAF4BB0F11F460FF1BC05E
:100690006F5F7F4F8F4F9F4F16C0882311F096E9F1
:1006A00011C0772321F09EE8872F762F05C066239F
:1006B00071F096E8862F70E060E02AF09A95660F58
:1006C000771F881FDAF7880F9695879597F9089511
:1006D0000BD078C069D028F06ED018F0952309F0BF
:1006E0005AC05FC01124A2C07ED0A0F3959FD1F361
:1006F000950F50E0551F629FF001729FBB27F00DD0
:10070000B11D639FAA27F00DB11DAA1F649F662724
:10071000B00DA11D661F829F2227B00DA11D621F73
:10072000739FB00DA11D621F839FA00D611D221F2D
:10073000749F3327A00D611D231F849F600D211D11
:10074000822F762F6A2F11249F5750408AF0E1F0B4
:1007500088234AF0EE0FFF1FBB1F661F771F881FFD
:1007600091505040A9F79E3F510570F014C05EC0F3
:100770005F3FECF3983EDCF3869577956795B795E8
:10078000F795E7959F5FC1F7FE2B880F911D969512
:10079000879597F9089597F99F6780E870E060E082
:1007A00008959FEF80EC089500240A94161617060A
:1007B00018060906089500240A9412161306140652
:1007C00005060895092E0394000C11F4882352F0B5
:1007D000BB0F40F4BF2B11F460FF04C06F5F7F4F6D
:1007E0008F4F9F4F089557FD9058440F551F59F054
:1007F0005F3F71F04795880F97FB991F61F09F3F0E
:1008000079F087950895121613061406551FF2CF36
:100810004695F1DF08C0161617061806991FF1CF86
:1008200086957105610508940895E894BB276627AD
:100830007727CB0197F90895EF920F931F93CF93EA
:10084000DF93E80147FD02C034E001C034E1E42F4A
:10085000440FFF0BF7FF03C0F195E195F109E32E7B
:10086000022F2E2FAE01EAD1CE01DF91CF911F9141
:100870000F91EF900895AEE0B0E0E0E4F4E0DDCE5B
:100880000D891E8986E08C831A8309838FEF9FE789
:100890009E838D83AE01475E5F4F6F89788DCE0159
:1008A000019609D02F813885F801E20FF31F1082DD
:1008B0002E96E4E0E2C4ACE0B0E0E0E6F4E0AFCED7
:1008C0007C016B018A01FC0117821682838181FF02
:1008D000B0C1CE0101964C01F7019381F60193FD61
:1008E000859193FF81916F01882309F49EC1853220
:1008F00039F493FD859193FF81916F01853221F445
:10090000B70190E016D4E8CF512C312C20E02032F2
:10091000A0F48B3269F030F4803259F0833269F4FC
:1009200020612CC08D3239F0803339F4216026C02B
:100930002260246023C0286021C027FD27C030ED3D
:10094000380F3A3078F426FF06C0FAE05F9E300D8B
:100950001124532E13C08AE0389E300D1124332EFB
:1009600020620CC08E3221F426FD5FC1206406C0D7
:100970008C3611F4206802C0883641F4F60193FDEC
:10098000859193FF81916F018111C1CF982F9F7D38
:100990009554933028F40C5F1F4FFFE3F9830DC08B
:1009A000833631F0833771F0833509F057C021C0A9
:1009B000F801808189830E5F1F4F44244394512C9A
:1009C000540114C03801F2E06F0E711CF801A080D0
:1009D000B18026FF03C0652D70E002C06FEF7FEF8E
:1009E000C5012C879BD32C0183012C852F77222EC8
:1009F00016C03801F2E06F0E711CF801A080B180C2
:100A000026FF03C0652D70E002C06FEF7FEFC501C8
:100A10002C8779D32C012C852068222E830123FC7E
:100A200019C0832D90E048165906A0F4B70180E262
:100A300090E07FD33A94F5CFF50127FC859127FE0E
:100A400081915F01B70190E074D331103A94F1E0E5
:100A50004F1A51084114510479F7DEC0843611F061
:100A6000893631F5F80127FF07C0608171818281E5
:100A700093810C5F1F4F08C060817181072E000CAD
:100A8000880B990B0E5F1F4F2F76722E97FF09C0B0
:100A900090958095709561957F4F8F4F9F4F2068FF
:100AA000722E2AE030E0A4017CD3A82EA81843C0FF
:100AB000853729F42F7EB22E2AE030E025C0F22FB0
:100AC000F97FBF2E8F36C1F018F4883579F0ADC0AC
:100AD000803719F0883721F0A8C02F2F2061B22E5F
:100AE000B4FE0DC08B2D8460B82E09C024FF0AC04F
:100AF0009F2F9660B92E06C028E030E005C020E1A7
:100B000030E002C020E132E0F801B7FE07C06081AA
:100B10007181828193810C5F1F4F06C0608171815A
:100B200080E090E00E5F1F4FA4013BD3A82EA818D1
:100B3000FB2DFF777F2E76FE0BC0372D3E7FA51451
:100B400050F474FE0AC072FC08C0372D3E7E05C00A
:100B5000BA2C372D03C0BA2C01C0B52C34FF0DC000
:100B6000FE01EA0DF11D8081803311F4397E09C048
:100B700032FF06C0B394B39404C0832F867809F083
:100B8000B39433FD12C030FF06C05A2CB31418F4CE
:100B9000530C5B18B32CB31460F4B70180E290E0FF
:100BA0003C87C7D2B3943C85F6CFB31410F43B18FE
:100BB00001C0312C34FF11C0B70180E390E03C87C5
:100BC000B8D23C8532FF16C031FD03C088E790E003
:100BD00002C088E590E0B7010CC0832F867851F001
:100BE00031FF02C08BE201C080E237FD8DE2B70128
:100BF00090E09FD2A51430F4B70180E390E099D241
:100C00005A94F8CFAA94F401EA0DF11D8081B7013E
:100C100090E08FD2A110F6CF332009F45DCEB7015A
:100C200080E290E086D23A94F7CFF70186819781EF
:100C300002C08FEF9FEF2C96E2E111C34F925F92BB
:100C40006F927F929F92AF92BF92CF92DF92EF927C
:100C5000FF920F931F93CF93DF93CDB7DEB7299702
:100C60000FB6F894DEBF0FBECDBF6A01122FB02EB3
:100C70002BE3201720F0FF24F394F00E02C0BCE316
:100C8000FB2E0F2D27E0AE014F5F5F4F64D1AC010B
:100C90008981982F9970913031F0E1FC06C0E0FE17
:100CA00006C090E205C09DE203C09BE201C090E057
:100CB000EE2DE07183FF3CC0911102C083E001C0C2
:100CC00084E0811718F4212F281B01C020E0E111D6
:100CD0000BC0F601822F30E2882319F03193815046
:100CE000FBCFC20ED11C20E0992329F0D6019C93A2
:100CF000F60131966F01C6010396E2FE0AC03EE49A
:100D0000D6013C9341E411964C93119712963C9373
:100D100006C03EE6F601308341E641833283FC01A2
:100D2000322F40E2332309F442C041933150FACFCD
:100D300082FF44C0911102C083E001C084E08117AA
:100D400018F4212F281B01C020E0E1110BC0F6018F
:100D5000822F30E2882319F031938150FBCFC20EED
:100D6000D11C20E0992329F0D6019C93F6013196FD
:100D70006F01C6010396E2FE0BC039E4D6013C9335
:100D80003EE411963C93119736E412963C9307C0CB
:100D900039E6F60130833EE6318336E63283FC01E4
:100DA000322F40E2332319F041933150FBCFFC0145
:100DB000E20FF11D10828EEF9FEFB7C0F1E09111AD
:100DC00001C0F0E06F2F70E01416150624F49A01AC
:100DD0002F5F3F4F02C021E030E0260F371FBB20BE
:100DE00029F06B2D70E06F5F7F4F02C060E070E014
:100DF000260F371F612F70E0261737071CF4121BD0
:100E0000212F01C020E03E2D387159F4D601322F38
:100E100060E2332319F06D933150FBCFC20ED11C29
:100E200020E0FF2331F0D6019C93B6016F5F7F4F26
:100E30006B01E1110BC0F601922F30E3992319F0F9
:100E400031939150FBCFC20ED11C20E09F2D940F07
:100E50003A81782F7071A72E84FF03C0313309F4D3
:100E60009150191624F4993018F098E001C091E0DF
:100E7000E42F852F57FF02C0E0E080E06E2F782F2F
:100E8000E0E0F0E0AEE29A2E3A01691A71082A0118
:100E9000461A570A0B2D10E01195019511096F3F65
:100EA0008FEF780729F4D6019C92C60101966C0158
:100EB0004617570784F0661677066CF47F01E40C3A
:100EC000F51CA1E0B0E0AC0FBD1FEA0EFB1ED70180
:100ED0001196BC9002C090E3B92E61507109319611
:100EE000C60101967C016017710724F0D601BC92FF
:100EF0006C01D5CF6417750741F4363320F43533D0
:100F000021F4A11002C081E3B82EF601B082F701EE
:100F1000822F90E2882319F091938150FBCFF70143
:100F2000E20FF11D108280E090E029960FB6F89450
:100F3000DEBF0FBECDBFDF91CF911F910F91FF900C
:100F4000EF90DF90CF90BF90AF909F907F906F9089
:100F50005F904F900895283008F027E03327DA019A
:100F6000990F311D87FD916000966105710539F477
:100F700032602E5F3D9330E32A95E1F708959F3F5D
:100F800030F080387105610509F03C5F3C5F3D93AE
:100F9000913008F08068911DDF93CF931F930F93DA
:100FA000FF92EF92192F987F9695E92F9695969537
:100FB000E90FFF27EE53FF4F99273327EE24FF2435
:100FC000A701E70105900894079428F4360FE71E5F
:100FD000F81E491F511D660F771F881F991F069421
:100FE000A1F70590079428F4E70EF81E491F561F35
:100FF000C11D770F881F991F661F0694A1F70590E2
:10100000079428F4F80E491F561FC71FD11D880FDB
:10101000991F661F771F0694A1F70590079420F487
:10102000490F561FC71FD81F990F661F771F881FAC
:101030000694A9F784911095177041F0D695C7953D
:1010400057954795F794E7941A95C1F7E8E6F0E0CD
:1010500068941590159135916591959105907FE271
:101060007395E118F10A430B560BC90BD009C0F771
:10107000E10CF11E431F561FC91FD01D7EF47033B3
:1010800011F48A95E6CFE894015030F0080F0AF485
:101090000027021708F4202F2395022F7A3328F017
:1010A00079E37D932A95E9F710C07D932A9589F617
:1010B000069497956795379517951794E118F10A57
:1010C000430B560BC90BD00998F023957E9173956D
:1010D0007A3308F070E37C932013B8F77E91706147
:1010E0007D9330F0839571E37D9370E32A95E1F76A
:1010F0001124EF90FF900F911F91CF91DF919927CD
:1011000087FD90950895FC01059061507040011095
:10111000D8F7809590958E0F9F1F0895FC01615020
:10112000704001900110D8F7809590958E0F9F1F09
:1011300008950F931F93CF93DF93FB01238121FD2C
:1011400003C08FEF9FEF28C022FF16C04681578152
:10115000248135814217530744F4A081B1819D0158
:101160002F5F3F4F318320838C93268137812F5F00
:101170003F4F3783268310C0EB01092F182F0084BF
:10118000F185E02D0995892BE1F68E819F810196ED
:101190009F838E83812F902FDF91CF911F910F918D
:1011A0000895FA01AA27283051F1203181F1E894FD
:1011B0006F936E7F6E5F7F4F8F4F9F4FAF4FB1E04A
:1011C0003ED0B4E03CD0670F781F891F9A1FA11D45
:1011D000680F791F8A1F911DA11D6A0F711D811D46
:1011E000911DA11D20D009F468943F912AE0269F0B
:1011F00011243019305D3193DEF6CF010895462F6A
:101200004770405D4193B3E00FD0C9F7F6CF462F4A
:101210004F70405D4A3318F0495D31FD40524193B3
:1012200002D0A9F7EACFB4E0A69597958795779570
:101230006795BA95C9F700976105710508959B01F7
:10124000AC010A2E06945795479537952795BA9580
:10125000C9F7620F731F841F951FA01D08952A8868
:10126000398848885F846E847D848C849B84AA84BA
:10127000B984C884DF80EE80FD800C811B81AA8147
:10128000B981CE0FD11D0FB6F894DEBF0FBECDBF12
:08129000ED010895F894FFCF71
:101298001B63005541525420696E697469616C6919
:1012A800736564202D203131352E324B6270730DF9
:1012B8000A0054574920696E697469616C697365DD
:1012C80064202D203130304B6270730D0A00494480
:1012D80020494D553A2057686F20416D2049203DDF
:1012E800205B30782532585D0D0A004944204D6155
:1012F800676E65746F6D657465723A2057686F2004
:10130800416D2049203D205B30782532585D0D0A1B
:10131800004944204261726F6D657465723A2057C6
:10132800686F20416D2049203D205B307825325878
:101338005D0D0A0054687265652049324320646572
:10134800766963652049447320617265207265611E
:10135800642E2E2E0D0A00507265737320616E790B
:10136800206B657920746F20726561642041636326
:10137800656C65726F6D6574657220646174612E49
:101388002E2E0D0A00416363656C2867293A2025D3
:0E139800732C2025732C202573200D0A0000D5
:00000001FF
