:1000000033C000004CC000004AC0000048C00000DF
:1000100046C0000044C0000042C0000040C00000D4
:100020003EC000003CC000003AC0000038C00000E4
:1000300036C0000034C0000032C0000030C00000F4
:100040002EC000002CC000002AC0000029C0000003
:1000500026C0000024C0000022C0000020C0000014
:100060001EC000001CC0000011241FBECFEFD8E04E
:10007000DEBFCDBF11E0A0E0B1E0E6E0F8E002C0F5
:1000800005900D92A431B107D9F721E0A4E1B1E0C8
:1000900001C01D92AA39B207E1F7B3D0B2C3B0CF05
:1000A0001F920F920FB60F9211248F939F93EF938D
:1000B000FF938091140190911501181619063CF5D3
:1000C000E0911601F0911701E65EFE4F808180936A
:1000D000C600809116019091170101969093170127
:1000E00080931601809114019091150101979093CE
:1000F00015018093140180911601909117018038A9
:10010000910554F0109217011092160105C08091CC
:10011000C1008F7D8093C100FF91EF919F918F91DE
:100120000F900FBE0F901F901895209118013091DD
:100130001901F901E65EFE4F80832F5F3F4F309338
:1001400019012093180180911401909115010196D5
:1001500090931501809314012038310524F01092FA
:1001600019011092180180911401909115018038A5
:1001700091054CF080911601909117010196909392
:100180001701809316018091140190911501019738
:10019000909315018093140108950F931F93CF93AB
:1001A000DF93EC018C01FE0101900020E9F731970B
:1001B000EC1BFD0BC8018C1B9D0B8E179F0728F4B1
:1001C000F80181918F01B1DFEECF8091C100806293
:1001D0008093C100DF91CF911F910F91089590916D
:1001E000C00095FFFCCF8093C6000895CF93DF93A6
:1001F000EC018991882311F0F2DFFBCFDF91CF91E1
:100200000895A0E8B0E0E6E0F1E03FC082E084B904
:100210001092C50081E88093C40086E08093C200FC
:1002200088E98093C100789400E010E080E0C82E57
:1002300081E0D82ECE0101967C010F5F1F4F1F93E6
:100240000F93DF92CF92FF92EF9231D0C701A5DFDB
:1002500095B1909595B99FE72AE186E091502040AD
:100260008040E1F700C000000F900F900F900F90BA
:100270000F900F90E2CF2F923F924F925F926F922A
:100280007F928F929F92AF92BF92CF92DF92EF9226
:10029000FF920F931F93CF93DF93CDB7DEB7CA1BA7
:1002A000DB0B0FB6F894DEBF0FBECDBF0994AEE0F6
:1002B000B0E0ECE5F1E0EDCF0D891E8986E08C839E
:1002C0001A8309838FEF9FE79E838D83AE01475E7C
:1002D0005F4F6F89788DCE01019609D02F813885C7
:1002E000F801E20FF31F10822E96E4E07DC2ACE02D
:1002F000B0E0ECE7F1E0BFCF7C016B018A01FC01CB
:1003000017821682838181FFB0C1CE0101964C0114
:10031000F7019381F60193FD859193FF81916F0120
:10032000882309F49EC1853239F493FD859193FFAA
:1003300081916F01853221F4B70190E0B1D1E8CF0E
:10034000512C312C20E02032A0F48B3269F030F4B3
:10035000803259F0833269F420612CC08D3239F03B
:10036000803339F4216026C02260246023C02860D5
:1003700021C027FD27C030ED380F3A3078F426FF32
:1003800006C0FAE05F9E300D1124532E13C08AE0A0
:10039000389E300D1124332E20620CC08E3221F491
:1003A00026FD5FC1206406C08C3611F4206802C0AF
:1003B000883641F4F60193FD859193FF81916F0199
:1003C0008111C1CF982F9F7D9554933028F40C5FF5
:1003D0001F4FFFE3F9830DC0833631F0833771F08F
:1003E000833509F057C021C0F801808189830E5FF1
:1003F0001F4F44244394512C540114C03801F2E09F
:100400006F0E711CF801A080B18026FF03C0652D1E
:1004100070E002C06FEF7FEFC5012C8736D12C0151
:1004200083012C852F77222E16C03801F2E06F0E43
:10043000711CF801A080B18026FF03C0652D70E01B
:1004400002C06FEF7FEFC5012C8714D12C012C85E2
:100450002068222E830123FC19C0832D90E04816CA
:100460005906A0F4B70180E290E01AD13A94F5CF92
:10047000F50127FC859127FE81915F01B70190E08E
:100480000FD131103A94F1E04F1A51084114510440
:1004900079F7DEC0843611F0893631F5F80127FF8F
:1004A00007C060817181828193810C5F1F4F08C0FA
:1004B00060817181072E000C880B990B0E5F1F4F16
:1004C0002F76722E97FF09C0909580957095619553
:1004D0007F4F8F4F9F4F2068722E2AE030E0A4019B
:1004E00017D1A82EA81843C0853729F42F7EB22E25
:1004F0002AE030E025C0F22FF97FBF2E8F36C1F001
:1005000018F4883579F0ADC0803719F0883721F0BC
:10051000A8C02F2F2061B22EB4FE0DC08B2D846099
:10052000B82E09C024FF0AC09F2F9660B92E06C0BE
:1005300028E030E005C020E130E002C020E132E0F8
:10054000F801B7FE07C060817181828193810C5FE1
:100550001F4F06C06081718180E090E00E5F1F4FE9
:10056000A401D6D0A82EA818FB2DFF777F2E76FEEB
:100570000BC0372D3E7FA51450F474FE0AC072FCE8
:1005800008C0372D3E7E05C0BA2C372D03C0BA2CCB
:1005900001C0B52C34FF0DC0FE01EA0DF11D8081B4
:1005A000803311F4397E09C032FF06C0B394B3948E
:1005B00004C0832F867809F0B39433FD12C030FF56
:1005C00006C05A2CB31418F4530C5B18B32CB31494
:1005D00060F4B70180E290E03C8762D0B3943C8540
:1005E000F6CFB31410F43B1801C0312C34FF11C006
:1005F000B70180E390E03C8753D03C8532FF16C0C2
:1006000031FD03C088E790E002C088E590E0B701C3
:100610000CC0832F867851F031FF02C08BE201C0FD
:1006200080E237FD8DE2B70190E03AD0A51430F4B6
:10063000B70180E390E034D05A94F8CFAA94F40143
:10064000EA0DF11D8081B70190E02AD0A110F6CF0C
:10065000332009F45DCEB70180E290E021D03A94D6
:10066000F7CFF7018681978102C08FEF9FEF2C961D
:10067000E2E1ACC0FC010590615070400110D8F778
:10068000809590958E0F9F1F0895FC0161507040DA
:1006900001900110D8F7809590958E0F9F1F0895B7
:1006A0000F931F93CF93DF93FB01238121FD03C0A1
:1006B0008FEF9FEF28C022FF16C04681578124810B
:1006C00035814217530744F4A081B1819D012F5F0A
:1006D0003F4F318320838C93268137812F5F3F4F9B
:1006E0003783268310C0EB01092F182F0084F18572
:1006F000E02D0995892BE1F68E819F8101969F83DC
:100700008E83812F902FDF91CF911F910F910895AC
:10071000FA01AA27283051F1203181F1E8946F9332
:100720006E7F6E5F7F4F8F4F9F4FAF4FB1E03ED0D8
:10073000B4E03CD0670F781F891F9A1FA11D680F76
:10074000791F8A1F911DA11D6A0F711D811D911DA9
:10075000A11D20D009F468943F912AE0269F11241E
:100760003019305D3193DEF6CF010895462F477082
:10077000405D4193B3E00FD0C9F7F6CF462F4F70DD
:10078000405D4A3318F0495D31FD4052419302D03B
:10079000A9F7EACFB4E0A6959795879577956795E1
:1007A000BA95C9F700976105710508959B01AC01E1
:1007B0000A2E06945795479537952795BA95C9F708
:1007C000620F731F841F951FA01D08952A88398802
:1007D00048885F846E847D848C849B84AA84B984D9
:1007E000C884DF80EE80FD800C811B81AA81B981E5
:1007F000CE0FD11D0FB6F894DEBF0FBECDBFED01F9
:060800000895F894FFCFFB
:100806005B25645D2048656C6C6F20576F726C6465
:04081600210D0A00A6
:00000001FF
