:1000000033C0000044C0000042C0000040C00000F7
:100010003EC000003CC000003AC0000038C00000F4
:1000200036C0000034C0000032C0000030C0000004
:100030002EC000002CC000002AC0000028C0000014
:1000400026C0000024C0000023C0000020C0000023
:100050001EC000001CC000001AC0000018C0000034
:1000600016C0000014C0000011241FBECFEFD8E05E
:10007000DEBFCDBF11E0A0E0B1E0ECE1F1E002C0F5
:1000800005900D92A832B107D9F72BD045C0B8CF53
:100090001F920F920FB60F9211248F93EF93FF933D
:1000A000E6ECF0E08081808385B1809585B9FF9191
:1000B000EF918F910F900FBE0F901F901895909118
:1000C000C00095FFFCCF8093C6000895CF93DF93C7
:1000D000EC018991882311F0F2DFFBCFDF91CF9102
:1000E000089582E084B91092C50081E88093C4002D
:1000F00086E08093C20088E98093C100789480E014
:1001000091E0E4DF2FE784E89EE1215080409040B9
:0C011000E1F700C00000F6CFF894FFCF2C
:10011C0053657269616C206563686F696E672074E2
:10012C006573742E205479706520616E79206B652F
:08013C00792E2E2E0D0A0000A1
:00000001FF
